{
  "_format": "hh-sol-artifact-1",
  "contractName": "GymNFT",
  "sourceName": "contracts/GymNFT.sol",
  "abi": [
    {
      "inputs": [
        {
          "internalType": "address",
          "name": "initialOwner",
          "type": "address"
        }
      ],
      "stateMutability": "nonpayable",
      "type": "constructor"
    },
    {
      "inputs": [
        {
          "internalType": "address",
          "name": "sender",
          "type": "address"
        },
        {
          "internalType": "uint256",
          "name": "tokenId",
          "type": "uint256"
        },
        {
          "internalType": "address",
          "name": "owner",
          "type": "address"
        }
      ],
      "name": "ERC721IncorrectOwner",
      "type": "error"
    },
    {
      "inputs": [
        {
          "internalType": "address",
          "name": "operator",
          "type": "address"
        },
        {
          "internalType": "uint256",
          "name": "tokenId",
          "type": "uint256"
        }
      ],
      "name": "ERC721InsufficientApproval",
      "type": "error"
    },
    {
      "inputs": [
        {
          "internalType": "address",
          "name": "approver",
          "type": "address"
        }
      ],
      "name": "ERC721InvalidApprover",
      "type": "error"
    },
    {
      "inputs": [
        {
          "internalType": "address",
          "name": "operator",
          "type": "address"
        }
      ],
      "name": "ERC721InvalidOperator",
      "type": "error"
    },
    {
      "inputs": [
        {
          "internalType": "address",
          "name": "owner",
          "type": "address"
        }
      ],
      "name": "ERC721InvalidOwner",
      "type": "error"
    },
    {
      "inputs": [
        {
          "internalType": "address",
          "name": "receiver",
          "type": "address"
        }
      ],
      "name": "ERC721InvalidReceiver",
      "type": "error"
    },
    {
      "inputs": [
        {
          "internalType": "address",
          "name": "sender",
          "type": "address"
        }
      ],
      "name": "ERC721InvalidSender",
      "type": "error"
    },
    {
      "inputs": [
        {
          "internalType": "uint256",
          "name": "tokenId",
          "type": "uint256"
        }
      ],
      "name": "ERC721NonexistentToken",
      "type": "error"
    },
    {
      "inputs": [
        {
          "internalType": "address",
          "name": "owner",
          "type": "address"
        }
      ],
      "name": "OwnableInvalidOwner",
      "type": "error"
    },
    {
      "inputs": [
        {
          "internalType": "address",
          "name": "account",
          "type": "address"
        }
      ],
      "name": "OwnableUnauthorizedAccount",
      "type": "error"
    },
    {
      "anonymous": false,
      "inputs": [
        {
          "indexed": true,
          "internalType": "address",
          "name": "owner",
          "type": "address"
        },
        {
          "indexed": true,
          "internalType": "address",
          "name": "approved",
          "type": "address"
        },
        {
          "indexed": true,
          "internalType": "uint256",
          "name": "tokenId",
          "type": "uint256"
        }
      ],
      "name": "Approval",
      "type": "event"
    },
    {
      "anonymous": false,
      "inputs": [
        {
          "indexed": true,
          "internalType": "address",
          "name": "owner",
          "type": "address"
        },
        {
          "indexed": true,
          "internalType": "address",
          "name": "operator",
          "type": "address"
        },
        {
          "indexed": false,
          "internalType": "bool",
          "name": "approved",
          "type": "bool"
        }
      ],
      "name": "ApprovalForAll",
      "type": "event"
    },
    {
      "anonymous": false,
      "inputs": [
        {
          "indexed": false,
          "internalType": "uint256",
          "name": "_fromTokenId",
          "type": "uint256"
        },
        {
          "indexed": false,
          "internalType": "uint256",
          "name": "_toTokenId",
          "type": "uint256"
        }
      ],
      "name": "BatchMetadataUpdate",
      "type": "event"
    },
    {
      "anonymous": false,
      "inputs": [
        {
          "indexed": false,
          "internalType": "uint256",
          "name": "_tokenId",
          "type": "uint256"
        }
      ],
      "name": "MetadataUpdate",
      "type": "event"
    },
    {
      "anonymous": false,
      "inputs": [
        {
          "indexed": true,
          "internalType": "address",
          "name": "to",
          "type": "address"
        },
        {
          "indexed": true,
          "internalType": "uint256",
          "name": "tokenId",
          "type": "uint256"
        },
        {
          "indexed": false,
          "internalType": "string",
          "name": "tokenURI",
          "type": "string"
        }
      ],
      "name": "NFTMinted",
      "type": "event"
    },
    {
      "anonymous": false,
      "inputs": [
        {
          "indexed": true,
          "internalType": "address",
          "name": "previousOwner",
          "type": "address"
        },
        {
          "indexed": true,
          "internalType": "address",
          "name": "newOwner",
          "type": "address"
        }
      ],
      "name": "OwnershipTransferred",
      "type": "event"
    },
    {
      "anonymous": false,
      "inputs": [
        {
          "indexed": true,
          "internalType": "address",
          "name": "from",
          "type": "address"
        },
        {
          "indexed": true,
          "internalType": "address",
          "name": "to",
          "type": "address"
        },
        {
          "indexed": true,
          "internalType": "uint256",
          "name": "tokenId",
          "type": "uint256"
        }
      ],
      "name": "Transfer",
      "type": "event"
    },
    {
      "inputs": [
        {
          "internalType": "address",
          "name": "to",
          "type": "address"
        },
        {
          "internalType": "uint256",
          "name": "tokenId",
          "type": "uint256"
        }
      ],
      "name": "approve",
      "outputs": [],
      "stateMutability": "nonpayable",
      "type": "function"
    },
    {
      "inputs": [
        {
          "internalType": "address",
          "name": "owner",
          "type": "address"
        }
      ],
      "name": "balanceOf",
      "outputs": [
        {
          "internalType": "uint256",
          "name": "",
          "type": "uint256"
        }
      ],
      "stateMutability": "view",
      "type": "function"
    },
    {
      "inputs": [
        {
          "internalType": "uint256",
          "name": "tokenId",
          "type": "uint256"
        }
      ],
      "name": "getApproved",
      "outputs": [
        {
          "internalType": "address",
          "name": "",
          "type": "address"
        }
      ],
      "stateMutability": "view",
      "type": "function"
    },
    {
      "inputs": [
        {
          "internalType": "address",
          "name": "owner",
          "type": "address"
        },
        {
          "internalType": "address",
          "name": "operator",
          "type": "address"
        }
      ],
      "name": "isApprovedForAll",
      "outputs": [
        {
          "internalType": "bool",
          "name": "",
          "type": "bool"
        }
      ],
      "stateMutability": "view",
      "type": "function"
    },
    {
      "inputs": [
        {
          "internalType": "string",
          "name": "tokenURI",
          "type": "string"
        }
      ],
      "name": "mintNFT",
      "outputs": [
        {
          "internalType": "uint256",
          "name": "",
          "type": "uint256"
        }
      ],
      "stateMutability": "nonpayable",
      "type": "function"
    },
    {
      "inputs": [],
      "name": "name",
      "outputs": [
        {
          "internalType": "string",
          "name": "",
          "type": "string"
        }
      ],
      "stateMutability": "view",
      "type": "function"
    },
    {
      "inputs": [],
      "name": "owner",
      "outputs": [
        {
          "internalType": "address",
          "name": "",
          "type": "address"
        }
      ],
      "stateMutability": "view",
      "type": "function"
    },
    {
      "inputs": [
        {
          "internalType": "uint256",
          "name": "tokenId",
          "type": "uint256"
        }
      ],
      "name": "ownerOf",
      "outputs": [
        {
          "internalType": "address",
          "name": "",
          "type": "address"
        }
      ],
      "stateMutability": "view",
      "type": "function"
    },
    {
      "inputs": [],
      "name": "renounceOwnership",
      "outputs": [],
      "stateMutability": "nonpayable",
      "type": "function"
    },
    {
      "inputs": [
        {
          "internalType": "address",
          "name": "from",
          "type": "address"
        },
        {
          "internalType": "address",
          "name": "to",
          "type": "address"
        },
        {
          "internalType": "uint256",
          "name": "tokenId",
          "type": "uint256"
        }
      ],
      "name": "safeTransferFrom",
      "outputs": [],
      "stateMutability": "nonpayable",
      "type": "function"
    },
    {
      "inputs": [
        {
          "internalType": "address",
          "name": "from",
          "type": "address"
        },
        {
          "internalType": "address",
          "name": "to",
          "type": "address"
        },
        {
          "internalType": "uint256",
          "name": "tokenId",
          "type": "uint256"
        },
        {
          "internalType": "bytes",
          "name": "data",
          "type": "bytes"
        }
      ],
      "name": "safeTransferFrom",
      "outputs": [],
      "stateMutability": "nonpayable",
      "type": "function"
    },
    {
      "inputs": [
        {
          "internalType": "address",
          "name": "operator",
          "type": "address"
        },
        {
          "internalType": "bool",
          "name": "approved",
          "type": "bool"
        }
      ],
      "name": "setApprovalForAll",
      "outputs": [],
      "stateMutability": "nonpayable",
      "type": "function"
    },
    {
      "inputs": [
        {
          "internalType": "bytes4",
          "name": "interfaceId",
          "type": "bytes4"
        }
      ],
      "name": "supportsInterface",
      "outputs": [
        {
          "internalType": "bool",
          "name": "",
          "type": "bool"
        }
      ],
      "stateMutability": "view",
      "type": "function"
    },
    {
      "inputs": [],
      "name": "symbol",
      "outputs": [
        {
          "internalType": "string",
          "name": "",
          "type": "string"
        }
      ],
      "stateMutability": "view",
      "type": "function"
    },
    {
      "inputs": [
        {
          "internalType": "uint256",
          "name": "tokenId",
          "type": "uint256"
        }
      ],
      "name": "tokenURI",
      "outputs": [
        {
          "internalType": "string",
          "name": "",
          "type": "string"
        }
      ],
      "stateMutability": "view",
      "type": "function"
    },
    {
      "inputs": [
        {
          "internalType": "address",
          "name": "from",
          "type": "address"
        },
        {
          "internalType": "address",
          "name": "to",
          "type": "address"
        },
        {
          "internalType": "uint256",
          "name": "tokenId",
          "type": "uint256"
        }
      ],
      "name": "transferFrom",
      "outputs": [],
      "stateMutability": "nonpayable",
      "type": "function"
    },
    {
      "inputs": [
        {
          "internalType": "address",
          "name": "newOwner",
          "type": "address"
        }
      ],
      "name": "transferOwnership",
      "outputs": [],
      "stateMutability": "nonpayable",
      "type": "function"
    }
  ],
  "bytecode": "0x608060405260016008553480156200001657600080fd5b506040516200181c3803806200181c83398101604081905262000039916200012f565b806040518060400160405280600681526020016511de5b53919560d21b8152506040518060400160405280600681526020016511d65353919560d21b815250816000908162000089919062000206565b50600162000098828262000206565b5050506001600160a01b038116620000ca57604051631e4fbdf760e01b81526000600482015260240160405180910390fd5b620000d581620000dd565b5050620002d2565b600780546001600160a01b038381166001600160a01b0319831681179093556040519116919082907f8be0079c531659141344cd1fd0a4f28419497f9722a3daafe3b4186f6b6457e090600090a35050565b6000602082840312156200014257600080fd5b81516001600160a01b03811681146200015a57600080fd5b9392505050565b634e487b7160e01b600052604160045260246000fd5b600181811c908216806200018c57607f821691505b602082108103620001ad57634e487b7160e01b600052602260045260246000fd5b50919050565b601f8211156200020157600081815260208120601f850160051c81016020861015620001dc5750805b601f850160051c820191505b81811015620001fd57828155600101620001e8565b5050505b505050565b81516001600160401b0381111562000222576200022262000161565b6200023a8162000233845462000177565b84620001b3565b602080601f831160018114620002725760008415620002595750858301515b600019600386901b1c1916600185901b178555620001fd565b600085815260208120601f198616915b82811015620002a35788860151825594840194600190910190840162000282565b5085821015620002c25787850151600019600388901b60f8161c191681555b5050505050600190811b01905550565b61153a80620002e26000396000f3fe608060405234801561001057600080fd5b506004361061010b5760003560e01c8063715018a6116100a2578063b88d4fde11610071578063b88d4fde1461021b578063c87b56dd1461022e578063e985e9c514610241578063f2fde38b14610254578063fb37e8831461026757600080fd5b8063715018a6146101e75780638da5cb5b146101ef57806395d89b4114610200578063a22cb4651461020857600080fd5b806323b872dd116100de57806323b872dd1461018d57806342842e0e146101a05780636352211e146101b357806370a08231146101c657600080fd5b806301ffc9a71461011057806306fdde0314610138578063081812fc1461014d578063095ea7b314610178575b600080fd5b61012361011e366004611002565b61027a565b60405190151581526020015b60405180910390f35b6101406102a5565b60405161012f919061106f565b61016061015b366004611082565b610337565b6040516001600160a01b03909116815260200161012f565b61018b6101863660046110b7565b610360565b005b61018b61019b3660046110e1565b61036f565b61018b6101ae3660046110e1565b6103ff565b6101606101c1366004611082565b61041f565b6101d96101d436600461111d565b61042a565b60405190815260200161012f565b61018b610472565b6007546001600160a01b0316610160565b610140610486565b61018b610216366004611138565b610495565b61018b610229366004611200565b6104a0565b61014061023c366004611082565b6104b8565b61012361024f36600461127c565b6105c9565b61018b61026236600461111d565b6105f7565b6101d96102753660046112af565b610635565b60006001600160e01b03198216632483248360e11b148061029f575061029f82610780565b92915050565b6060600080546102b4906112f8565b80601f01602080910402602001604051908101604052809291908181526020018280546102e0906112f8565b801561032d5780601f106103025761010080835404028352916020019161032d565b820191906000526020600020905b81548152906001019060200180831161031057829003601f168201915b5050505050905090565b6000610342826107d0565b506000828152600460205260409020546001600160a01b031661029f565b61036b828233610809565b5050565b6001600160a01b03821661039e57604051633250574960e11b8152600060048201526024015b60405180910390fd5b60006103ab838333610816565b9050836001600160a01b0316816001600160a01b0316146103f9576040516364283d7b60e01b81526001600160a01b0380861660048301526024820184905282166044820152606401610395565b50505050565b61041a838383604051806020016040528060008152506104a0565b505050565b600061029f826107d0565b60006001600160a01b038216610456576040516322718ad960e21b815260006004820152602401610395565b506001600160a01b031660009081526003602052604090205490565b61047a61090f565b610484600061093c565b565b6060600180546102b4906112f8565b61036b33838361098e565b6104ab84848461036f565b6103f93385858585610a2d565b60606104c3826107d0565b50600082815260066020526040812080546104dd906112f8565b80601f0160208091040260200160405190810160405280929190818152602001828054610509906112f8565b80156105565780601f1061052b57610100808354040283529160200191610556565b820191906000526020600020905b81548152906001019060200180831161053957829003601f168201915b50505050509050600061057460408051602081019091526000815290565b90508051600003610586575092915050565b8151156105b85780826040516020016105a0929190611332565b60405160208183030381529060405292505050919050565b6105c184610b58565b949350505050565b6001600160a01b03918216600090815260056020908152604080832093909416825291909152205460ff1690565b6105ff61090f565b6001600160a01b03811661062957604051631e4fbdf760e01b815260006004820152602401610395565b6106328161093c565b50565b6000808251116106785760405162461bcd60e51b815260206004820152600e60248201526d456d70747920746f6b656e55524960901b6044820152606401610395565b6009826040516106889190611361565b9081526040519081900360200190205460ff16156106e15760405162461bcd60e51b8152602060048201526016602482015275151bdad95b8815549248185b1c9958591e481d5cd95960521b6044820152606401610395565b6008546106ee3382610bcd565b6106f88184610be7565b600160098460405161070a9190611361565b908152604051908190036020018120805492151560ff1990931692909217909155819033907fd35bb95e09c04b219e35047ce7b7b300e3384264ef84a40456943dbc0fc17c149061075c90879061106f565b60405180910390a3600880549060006107748361137d565b90915550909392505050565b60006001600160e01b031982166380ac58cd60e01b14806107b157506001600160e01b03198216635b5e139f60e01b145b8061029f57506301ffc9a760e01b6001600160e01b031983161461029f565b6000818152600260205260408120546001600160a01b03168061029f57604051637e27328960e01b815260048101849052602401610395565b61041a8383836001610c37565b6000828152600260205260408120546001600160a01b039081169083161561084357610843818486610d3d565b6001600160a01b0381161561088157610860600085600080610c37565b6001600160a01b038116600090815260036020526040902080546000190190555b6001600160a01b038516156108b0576001600160a01b0385166000908152600360205260409020805460010190555b60008481526002602052604080822080546001600160a01b0319166001600160a01b0389811691821790925591518793918516917fddf252ad1be2c89b69c2b068fc378daa952ba7f163c4a11628f55a4df523b3ef91a4949350505050565b6007546001600160a01b031633146104845760405163118cdaa760e01b8152336004820152602401610395565b600780546001600160a01b038381166001600160a01b0319831681179093556040519116919082907f8be0079c531659141344cd1fd0a4f28419497f9722a3daafe3b4186f6b6457e090600090a35050565b6001600160a01b0382166109c057604051630b61174360e31b81526001600160a01b0383166004820152602401610395565b6001600160a01b03838116600081815260056020908152604080832094871680845294825291829020805460ff191686151590811790915591519182527f17307eab39ab6107e8899845ad3d59bd9653f200f220920489ca2b5937696c31910160405180910390a3505050565b6001600160a01b0383163b15610b5157604051630a85bd0160e11b81526001600160a01b0384169063150b7a0290610a6f9088908890879087906004016113a4565b6020604051808303816000875af1925050508015610aaa575060408051601f3d908101601f19168201909252610aa7918101906113e1565b60015b610b13573d808015610ad8576040519150601f19603f3d011682016040523d82523d6000602084013e610add565b606091505b508051600003610b0b57604051633250574960e11b81526001600160a01b0385166004820152602401610395565b805181602001fd5b6001600160e01b03198116630a85bd0160e11b14610b4f57604051633250574960e11b81526001600160a01b0385166004820152602401610395565b505b5050505050565b6060610b63826107d0565b506000610b7b60408051602081019091526000815290565b90506000815111610b9b5760405180602001604052806000815250610bc6565b80610ba584610da1565b604051602001610bb6929190611332565b6040516020818303038152906040525b9392505050565b61036b828260405180602001604052806000815250610e34565b6000828152600660205260409020610bff8282611444565b506040518281527ff8e1a15aba9398e019f0b49df1a4fde98ee17ae345cb5f6b5e2c27f5033e8ce79060200160405180910390a15050565b8080610c4b57506001600160a01b03821615155b15610d0d576000610c5b846107d0565b90506001600160a01b03831615801590610c875750826001600160a01b0316816001600160a01b031614155b8015610c9a5750610c9881846105c9565b155b15610cc35760405163a9fbf51f60e01b81526001600160a01b0384166004820152602401610395565b8115610d0b5783856001600160a01b0316826001600160a01b03167f8c5be1e5ebec7d5bd14f71427d1e84f3dd0314c0f7b2291e5b200ac8c7c3b92560405160405180910390a45b505b5050600090815260046020526040902080546001600160a01b0319166001600160a01b0392909216919091179055565b610d48838383610e4c565b61041a576001600160a01b038316610d7657604051637e27328960e01b815260048101829052602401610395565b60405163177e802f60e01b81526001600160a01b038316600482015260248101829052604401610395565b60606000610dae83610eaf565b600101905060008167ffffffffffffffff811115610dce57610dce611174565b6040519080825280601f01601f191660200182016040528015610df8576020820181803683370190505b5090508181016020015b600019016f181899199a1a9b1b9c1cb0b131b232b360811b600a86061a8153600a8504945084610e0257509392505050565b610e3e8383610f87565b61041a336000858585610a2d565b60006001600160a01b038316158015906105c15750826001600160a01b0316846001600160a01b03161480610e865750610e8684846105c9565b806105c15750506000908152600460205260409020546001600160a01b03908116911614919050565b60008072184f03e93ff9f4daa797ed6e38ed64bf6a1f0160401b8310610eee5772184f03e93ff9f4daa797ed6e38ed64bf6a1f0160401b830492506040015b6d04ee2d6d415b85acef81000000008310610f1a576d04ee2d6d415b85acef8100000000830492506020015b662386f26fc100008310610f3857662386f26fc10000830492506010015b6305f5e1008310610f50576305f5e100830492506008015b6127108310610f6457612710830492506004015b60648310610f76576064830492506002015b600a831061029f5760010192915050565b6001600160a01b038216610fb157604051633250574960e11b815260006004820152602401610395565b6000610fbf83836000610816565b90506001600160a01b0381161561041a576040516339e3563760e11b815260006004820152602401610395565b6001600160e01b03198116811461063257600080fd5b60006020828403121561101457600080fd5b8135610bc681610fec565b60005b8381101561103a578181015183820152602001611022565b50506000910152565b6000815180845261105b81602086016020860161101f565b601f01601f19169290920160200192915050565b602081526000610bc66020830184611043565b60006020828403121561109457600080fd5b5035919050565b80356001600160a01b03811681146110b257600080fd5b919050565b600080604083850312156110ca57600080fd5b6110d38361109b565b946020939093013593505050565b6000806000606084860312156110f657600080fd5b6110ff8461109b565b925061110d6020850161109b565b9150604084013590509250925092565b60006020828403121561112f57600080fd5b610bc68261109b565b6000806040838503121561114b57600080fd5b6111548361109b565b91506020830135801515811461116957600080fd5b809150509250929050565b634e487b7160e01b600052604160045260246000fd5b600067ffffffffffffffff808411156111a5576111a5611174565b604051601f8501601f19908116603f011681019082821181831017156111cd576111cd611174565b816040528093508581528686860111156111e657600080fd5b858560208301376000602087830101525050509392505050565b6000806000806080858703121561121657600080fd5b61121f8561109b565b935061122d6020860161109b565b925060408501359150606085013567ffffffffffffffff81111561125057600080fd5b8501601f8101871361126157600080fd5b6112708782356020840161118a565b91505092959194509250565b6000806040838503121561128f57600080fd5b6112988361109b565b91506112a66020840161109b565b90509250929050565b6000602082840312156112c157600080fd5b813567ffffffffffffffff8111156112d857600080fd5b8201601f810184136112e957600080fd5b6105c18482356020840161118a565b600181811c9082168061130c57607f821691505b60208210810361132c57634e487b7160e01b600052602260045260246000fd5b50919050565b6000835161134481846020880161101f565b83519083019061135881836020880161101f565b01949350505050565b6000825161137381846020870161101f565b9190910192915050565b60006001820161139d57634e487b7160e01b600052601160045260246000fd5b5060010190565b6001600160a01b03858116825284166020820152604081018390526080606082018190526000906113d790830184611043565b9695505050505050565b6000602082840312156113f357600080fd5b8151610bc681610fec565b601f82111561041a57600081815260208120601f850160051c810160208610156114255750805b601f850160051c820191505b81811015610b4f57828155600101611431565b815167ffffffffffffffff81111561145e5761145e611174565b6114728161146c84546112f8565b846113fe565b602080601f8311600181146114a7576000841561148f5750858301515b600019600386901b1c1916600185901b178555610b4f565b600085815260208120601f198616915b828110156114d6578886015182559484019460019091019084016114b7565b50858210156114f45787850151600019600388901b60f8161c191681555b5050505050600190811b0190555056fea26469706673582212203336a96e5f19bca54fdc6129a163757ca3863326c665d2a644dc8d1c7d8392a964736f6c63430008140033",
  "linkReferences": {},
  "deployedLinkReferences": {}
}