{
  "_format": "hh-sol-artifact-1",
  "contractName": "Auction",
  "sourceName": "contracts/Auction.sol",
  "abi": [
    {
      "inputs": [
        {
          "internalType": "address",
          "name": "initialOwner",
          "type": "address"
        }
      ],
      "stateMutability": "nonpayable",
      "type": "constructor"
    },
    {
      "inputs": [
        {
          "internalType": "address",
          "name": "owner",
          "type": "address"
        }
      ],
      "name": "OwnableInvalidOwner",
      "type": "error"
    },
    {
      "inputs": [
        {
          "internalType": "address",
          "name": "account",
          "type": "address"
        }
      ],
      "name": "OwnableUnauthorizedAccount",
      "type": "error"
    },
    {
      "anonymous": false,
      "inputs": [
        {
          "indexed": false,
          "internalType": "uint256",
          "name": "auctionId",
          "type": "uint256"
        },
        {
          "indexed": false,
          "internalType": "address",
          "name": "nftAddress",
          "type": "address"
        },
        {
          "indexed": false,
          "internalType": "uint256",
          "name": "tokenId",
          "type": "uint256"
        },
        {
          "indexed": false,
          "internalType": "uint256",
          "name": "endTime",
          "type": "uint256"
        }
      ],
      "name": "AuctionCreated",
      "type": "event"
    },
    {
      "anonymous": false,
      "inputs": [
        {
          "indexed": false,
          "internalType": "uint256",
          "name": "auctionId",
          "type": "uint256"
        },
        {
          "indexed": false,
          "internalType": "address",
          "name": "winner",
          "type": "address"
        },
        {
          "indexed": false,
          "internalType": "uint256",
          "name": "amount",
          "type": "uint256"
        }
      ],
      "name": "AuctionEnded",
      "type": "event"
    },
    {
      "anonymous": false,
      "inputs": [
        {
          "indexed": false,
          "internalType": "uint256",
          "name": "auctionId",
          "type": "uint256"
        },
        {
          "indexed": false,
          "internalType": "address",
          "name": "bidder",
          "type": "address"
        },
        {
          "indexed": false,
          "internalType": "uint256",
          "name": "amount",
          "type": "uint256"
        }
      ],
      "name": "NewHighestBid",
      "type": "event"
    },
    {
      "anonymous": false,
      "inputs": [
        {
          "indexed": true,
          "internalType": "address",
          "name": "previousOwner",
          "type": "address"
        },
        {
          "indexed": true,
          "internalType": "address",
          "name": "newOwner",
          "type": "address"
        }
      ],
      "name": "OwnershipTransferred",
      "type": "event"
    },
    {
      "inputs": [],
      "name": "auctionCounter",
      "outputs": [
        {
          "internalType": "uint256",
          "name": "",
          "type": "uint256"
        }
      ],
      "stateMutability": "view",
      "type": "function"
    },
    {
      "inputs": [
        {
          "internalType": "uint256",
          "name": "",
          "type": "uint256"
        }
      ],
      "name": "auctions",
      "outputs": [
        {
          "internalType": "address",
          "name": "nftAddress",
          "type": "address"
        },
        {
          "internalType": "uint256",
          "name": "tokenId",
          "type": "uint256"
        },
        {
          "internalType": "address payable",
          "name": "seller",
          "type": "address"
        },
        {
          "internalType": "uint256",
          "name": "highestBid",
          "type": "uint256"
        },
        {
          "internalType": "address payable",
          "name": "highestBidder",
          "type": "address"
        },
        {
          "internalType": "uint256",
          "name": "endTime",
          "type": "uint256"
        },
        {
          "internalType": "bool",
          "name": "ended",
          "type": "bool"
        }
      ],
      "stateMutability": "view",
      "type": "function"
    },
    {
      "inputs": [
        {
          "internalType": "address",
          "name": "nftAddress",
          "type": "address"
        },
        {
          "internalType": "uint256",
          "name": "tokenId",
          "type": "uint256"
        },
        {
          "internalType": "uint256",
          "name": "durationInMinutes",
          "type": "uint256"
        }
      ],
      "name": "createAuction",
      "outputs": [],
      "stateMutability": "nonpayable",
      "type": "function"
    },
    {
      "inputs": [
        {
          "internalType": "uint256",
          "name": "auctionId",
          "type": "uint256"
        }
      ],
      "name": "endAuction",
      "outputs": [],
      "stateMutability": "nonpayable",
      "type": "function"
    },
    {
      "inputs": [
        {
          "internalType": "uint256",
          "name": "auctionId",
          "type": "uint256"
        }
      ],
      "name": "getAuction",
      "outputs": [
        {
          "internalType": "address",
          "name": "nftAddress",
          "type": "address"
        },
        {
          "internalType": "uint256",
          "name": "tokenId",
          "type": "uint256"
        },
        {
          "internalType": "address",
          "name": "seller",
          "type": "address"
        },
        {
          "internalType": "uint256",
          "name": "highestBid",
          "type": "uint256"
        },
        {
          "internalType": "address",
          "name": "highestBidder",
          "type": "address"
        },
        {
          "internalType": "uint256",
          "name": "endTime",
          "type": "uint256"
        },
        {
          "internalType": "bool",
          "name": "ended",
          "type": "bool"
        }
      ],
      "stateMutability": "view",
      "type": "function"
    },
    {
      "inputs": [],
      "name": "owner",
      "outputs": [
        {
          "internalType": "address",
          "name": "",
          "type": "address"
        }
      ],
      "stateMutability": "view",
      "type": "function"
    },
    {
      "inputs": [
        {
          "internalType": "uint256",
          "name": "auctionId",
          "type": "uint256"
        }
      ],
      "name": "placeBid",
      "outputs": [],
      "stateMutability": "payable",
      "type": "function"
    },
    {
      "inputs": [],
      "name": "renounceOwnership",
      "outputs": [],
      "stateMutability": "nonpayable",
      "type": "function"
    },
    {
      "inputs": [
        {
          "internalType": "address",
          "name": "newOwner",
          "type": "address"
        }
      ],
      "name": "transferOwnership",
      "outputs": [],
      "stateMutability": "nonpayable",
      "type": "function"
    }
  ],
  "bytecode": "0x608060405234801561001057600080fd5b50604051610ab3380380610ab383398101604081905261002f916100be565b806001600160a01b03811661005e57604051631e4fbdf760e01b81526000600482015260240160405180910390fd5b6100678161006e565b50506100ee565b600080546001600160a01b038381166001600160a01b0319831681178455604051919092169283917f8be0079c531659141344cd1fd0a4f28419497f9722a3daafe3b4186f6b6457e09190a35050565b6000602082840312156100d057600080fd5b81516001600160a01b03811681146100e757600080fd5b9392505050565b6109b6806100fd6000396000f3fe6080604052600436106100865760003560e01c80639979ef45116100595780639979ef45146101ee578063a7e7664414610201578063abb9405114610225578063b9a2de3a14610245578063f2fde38b1461026557600080fd5b8063571a26a01461008b578063715018a61461014557806378bd79351461015c5780638da5cb5b146101c6575b600080fd5b34801561009757600080fd5b506100f56100a6366004610897565b600260208190526000918252604090912080546001820154928201546003830154600484015460058501546006909501546001600160a01b039485169695938516949293919092169160ff1687565b604080516001600160a01b0398891681526020810197909752948716948601949094526060850192909252909316608083015260a082019290925290151560c082015260e0015b60405180910390f35b34801561015157600080fd5b5061015a610285565b005b34801561016857600080fd5b506100f5610177366004610897565b600090815260026020819052604090912080546001820154928201546003830154600484015460058501546006909501546001600160a01b03948516979385169592949091169260ff90911690565b3480156101d257600080fd5b506000546040516001600160a01b03909116815260200161013c565b61015a6101fc366004610897565b610299565b34801561020d57600080fd5b5061021760015481565b60405190815260200161013c565b34801561023157600080fd5b5061015a6102403660046108cc565b6103eb565b34801561025157600080fd5b5061015a610260366004610897565b61058c565b34801561027157600080fd5b5061015a6102803660046108ff565b6107dc565b61028d61081a565b6102976000610847565b565b6000818152600260205260409020600581015442106102ef5760405162461bcd60e51b815260206004820152600d60248201526c105d58dd1a5bdb88195b991959609a1b60448201526064015b60405180910390fd5b806003015434116103305760405162461bcd60e51b815260206004820152600b60248201526a42696420746f6f206c6f7760a81b60448201526064016102e6565b60048101546001600160a01b03161561038557600481015460038201546040516001600160a01b039092169181156108fc0291906000818181858888f19350505050158015610383573d6000803e3d6000fd5b505b34600382018190556004820180546001600160a01b031916339081179091556040805185815260208101929092528101919091527ff13cb67d4c8841d2c893b242b7d61382d8e3bb53c5c58a8584106e74e8c4721b906060015b60405180910390a15050565b6040516323b872dd60e01b8152336004820152306024820152604481018390526001600160a01b038416906323b872dd90606401600060405180830381600087803b15801561043957600080fd5b505af115801561044d573d6000803e3d6000fd5b50505050600081603c6104609190610937565b61046a9042610954565b6040805160e0810182526001600160a01b03878116808352602080840189815233858701908152600060608088018281526080808a0184815260a08b018d815260c08c018681526001805488526002808c52978f90209d518e546001600160a01b0319908116918f16919091178f5599518e8201559751968d0180548a16978d1697909717909655925160038c01555160048b01805490971699169890981790945592516005880155516006909601805460ff19169615159690961790955593548551908152908101919091529283018790529082018390529192507fc9050d42180a61cb0d9ebb8ad118b62fe6eab12cf12ff752c4a0cc7da9ddf627910160405180910390a16001805490600061058183610967565b919050555050505050565b6000818152600260205260409020600681015460ff16156105e75760405162461bcd60e51b8152602060048201526015602482015274105d58dd1a5bdb88185b1c9958591e48195b991959605a1b60448201526064016102e6565b806005015442101561063b5760405162461bcd60e51b815260206004820152601860248201527f41756374696f6e206e6f742066696e697368656420796574000000000000000060448201526064016102e6565b60068101805460ff1916600117905560048101546001600160a01b03161561071857805460048083015460018401546040516323b872dd60e01b815230938101939093526001600160a01b0391821660248401526044830152909116906323b872dd90606401600060405180830381600087803b1580156106bb57600080fd5b505af11580156106cf573d6000803e3d6000fd5b505050600282015460038301546040516001600160a01b03909216925080156108fc02916000818181858888f19350505050158015610712573d6000803e3d6000fd5b5061078e565b8054600282015460018301546040516323b872dd60e01b81523060048201526001600160a01b03928316602482015260448101919091529116906323b872dd90606401600060405180830381600087803b15801561077557600080fd5b505af1158015610789573d6000803e3d6000fd5b505050505b60048101546003820154604080518581526001600160a01b0390931660208401528201527fd2aa34a4fdbbc6dff6a3e56f46e0f3ae2a31d7785ff3487aa5c95c642acea501906060016103df565b6107e461081a565b6001600160a01b03811661080e57604051631e4fbdf760e01b8152600060048201526024016102e6565b61081781610847565b50565b6000546001600160a01b031633146102975760405163118cdaa760e01b81523360048201526024016102e6565b600080546001600160a01b038381166001600160a01b0319831681178455604051919092169283917f8be0079c531659141344cd1fd0a4f28419497f9722a3daafe3b4186f6b6457e09190a35050565b6000602082840312156108a957600080fd5b5035919050565b80356001600160a01b03811681146108c757600080fd5b919050565b6000806000606084860312156108e157600080fd5b6108ea846108b0565b95602085013595506040909401359392505050565b60006020828403121561091157600080fd5b61091a826108b0565b9392505050565b634e487b7160e01b600052601160045260246000fd5b808202811582820484141761094e5761094e610921565b92915050565b8082018082111561094e5761094e610921565b60006001820161097957610979610921565b506001019056fea26469706673582212202195ceab2565aa0391ec69fca83cef291c5f048043b799fcc9c5c85a4d8639a164736f6c63430008140033",
  "linkReferences": {},
  "deployedLinkReferences": {}
}