{
  "_format": "hh-sol-artifact-1",
  "contractName": "Auction",
  "sourceName": "contracts/Auction.sol",
  "abi": [
    {
      "inputs": [
        {
          "internalType": "address",
          "name": "initialOwner",
          "type": "address"
        }
      ],
      "stateMutability": "nonpayable",
      "type": "constructor"
    },
    {
      "inputs": [
        {
          "internalType": "address",
          "name": "owner",
          "type": "address"
        }
      ],
      "name": "OwnableInvalidOwner",
      "type": "error"
    },
    {
      "inputs": [
        {
          "internalType": "address",
          "name": "account",
          "type": "address"
        }
      ],
      "name": "OwnableUnauthorizedAccount",
      "type": "error"
    },
    {
      "anonymous": false,
      "inputs": [
        {
          "indexed": true,
          "internalType": "uint256",
          "name": "auctionId",
          "type": "uint256"
        },
        {
          "indexed": true,
          "internalType": "address",
          "name": "nftAddress",
          "type": "address"
        },
        {
          "indexed": false,
          "internalType": "uint256",
          "name": "tokenId",
          "type": "uint256"
        },
        {
          "indexed": false,
          "internalType": "uint256",
          "name": "endTime",
          "type": "uint256"
        }
      ],
      "name": "AuctionCreated",
      "type": "event"
    },
    {
      "anonymous": false,
      "inputs": [
        {
          "indexed": true,
          "internalType": "uint256",
          "name": "auctionId",
          "type": "uint256"
        },
        {
          "indexed": true,
          "internalType": "address",
          "name": "winner",
          "type": "address"
        },
        {
          "indexed": false,
          "internalType": "uint256",
          "name": "amount",
          "type": "uint256"
        }
      ],
      "name": "AuctionEnded",
      "type": "event"
    },
    {
      "anonymous": false,
      "inputs": [
        {
          "indexed": true,
          "internalType": "address",
          "name": "from",
          "type": "address"
        },
        {
          "indexed": true,
          "internalType": "address",
          "name": "to",
          "type": "address"
        },
        {
          "indexed": true,
          "internalType": "uint256",
          "name": "tokenId",
          "type": "uint256"
        }
      ],
      "name": "NFTTransferred",
      "type": "event"
    },
    {
      "anonymous": false,
      "inputs": [
        {
          "indexed": true,
          "internalType": "uint256",
          "name": "auctionId",
          "type": "uint256"
        },
        {
          "indexed": true,
          "internalType": "address",
          "name": "bidder",
          "type": "address"
        },
        {
          "indexed": false,
          "internalType": "uint256",
          "name": "amount",
          "type": "uint256"
        }
      ],
      "name": "NewHighestBid",
      "type": "event"
    },
    {
      "anonymous": false,
      "inputs": [
        {
          "indexed": true,
          "internalType": "address",
          "name": "previousOwner",
          "type": "address"
        },
        {
          "indexed": true,
          "internalType": "address",
          "name": "newOwner",
          "type": "address"
        }
      ],
      "name": "OwnershipTransferred",
      "type": "event"
    },
    {
      "inputs": [
        {
          "internalType": "address",
          "name": "",
          "type": "address"
        },
        {
          "internalType": "uint256",
          "name": "",
          "type": "uint256"
        }
      ],
      "name": "activeTokenAuction",
      "outputs": [
        {
          "internalType": "bool",
          "name": "",
          "type": "bool"
        }
      ],
      "stateMutability": "view",
      "type": "function"
    },
    {
      "inputs": [],
      "name": "auctionCounter",
      "outputs": [
        {
          "internalType": "uint256",
          "name": "",
          "type": "uint256"
        }
      ],
      "stateMutability": "view",
      "type": "function"
    },
    {
      "inputs": [
        {
          "internalType": "uint256",
          "name": "",
          "type": "uint256"
        }
      ],
      "name": "auctions",
      "outputs": [
        {
          "internalType": "address",
          "name": "nftAddress",
          "type": "address"
        },
        {
          "internalType": "uint256",
          "name": "tokenId",
          "type": "uint256"
        },
        {
          "internalType": "address payable",
          "name": "seller",
          "type": "address"
        },
        {
          "internalType": "uint256",
          "name": "highestBid",
          "type": "uint256"
        },
        {
          "internalType": "address payable",
          "name": "highestBidder",
          "type": "address"
        },
        {
          "internalType": "uint256",
          "name": "endTime",
          "type": "uint256"
        },
        {
          "internalType": "uint256",
          "name": "lastBidTime",
          "type": "uint256"
        },
        {
          "internalType": "bool",
          "name": "ended",
          "type": "bool"
        }
      ],
      "stateMutability": "view",
      "type": "function"
    },
    {
      "inputs": [
        {
          "internalType": "address",
          "name": "nftAddress",
          "type": "address"
        },
        {
          "internalType": "uint256",
          "name": "tokenId",
          "type": "uint256"
        },
        {
          "internalType": "uint256",
          "name": "durationInMinutes",
          "type": "uint256"
        }
      ],
      "name": "createAuction",
      "outputs": [],
      "stateMutability": "nonpayable",
      "type": "function"
    },
    {
      "inputs": [
        {
          "internalType": "uint256",
          "name": "auctionId",
          "type": "uint256"
        }
      ],
      "name": "endAuction",
      "outputs": [],
      "stateMutability": "nonpayable",
      "type": "function"
    },
    {
      "inputs": [
        {
          "internalType": "uint256",
          "name": "auctionId",
          "type": "uint256"
        }
      ],
      "name": "getAuction",
      "outputs": [
        {
          "components": [
            {
              "internalType": "address",
              "name": "nftAddress",
              "type": "address"
            },
            {
              "internalType": "uint256",
              "name": "tokenId",
              "type": "uint256"
            },
            {
              "internalType": "address payable",
              "name": "seller",
              "type": "address"
            },
            {
              "internalType": "uint256",
              "name": "highestBid",
              "type": "uint256"
            },
            {
              "internalType": "address payable",
              "name": "highestBidder",
              "type": "address"
            },
            {
              "internalType": "uint256",
              "name": "endTime",
              "type": "uint256"
            },
            {
              "internalType": "uint256",
              "name": "lastBidTime",
              "type": "uint256"
            },
            {
              "internalType": "bool",
              "name": "ended",
              "type": "bool"
            }
          ],
          "internalType": "struct Auction.AuctionItem",
          "name": "",
          "type": "tuple"
        }
      ],
      "stateMutability": "view",
      "type": "function"
    },
    {
      "inputs": [
        {
          "internalType": "address",
          "name": "",
          "type": "address"
        },
        {
          "internalType": "address",
          "name": "",
          "type": "address"
        },
        {
          "internalType": "uint256",
          "name": "",
          "type": "uint256"
        },
        {
          "internalType": "bytes",
          "name": "",
          "type": "bytes"
        }
      ],
      "name": "onERC721Received",
      "outputs": [
        {
          "internalType": "bytes4",
          "name": "",
          "type": "bytes4"
        }
      ],
      "stateMutability": "pure",
      "type": "function"
    },
    {
      "inputs": [],
      "name": "owner",
      "outputs": [
        {
          "internalType": "address",
          "name": "",
          "type": "address"
        }
      ],
      "stateMutability": "view",
      "type": "function"
    },
    {
      "inputs": [
        {
          "internalType": "uint256",
          "name": "auctionId",
          "type": "uint256"
        }
      ],
      "name": "placeBid",
      "outputs": [],
      "stateMutability": "payable",
      "type": "function"
    },
    {
      "inputs": [],
      "name": "renounceOwnership",
      "outputs": [],
      "stateMutability": "nonpayable",
      "type": "function"
    },
    {
      "inputs": [
        {
          "internalType": "address",
          "name": "newOwner",
          "type": "address"
        }
      ],
      "name": "transferOwnership",
      "outputs": [],
      "stateMutability": "nonpayable",
      "type": "function"
    }
  ],
  "bytecode": "0x608060405234801561001057600080fd5b50604051610f09380380610f0983398101604081905261002f916100be565b806001600160a01b03811661005e57604051631e4fbdf760e01b81526000600482015260240160405180910390fd5b6100678161006e565b50506100ee565b600080546001600160a01b038381166001600160a01b0319831681178455604051919092169283917f8be0079c531659141344cd1fd0a4f28419497f9722a3daafe3b4186f6b6457e09190a35050565b6000602082840312156100d057600080fd5b81516001600160a01b03811681146100e757600080fd5b9392505050565b610e0c806100fd6000396000f3fe60806040526004361061009c5760003560e01c80639979ef45116100645780639979ef451461033b578063a4bd4f4e1461034e578063a7e7664414610399578063abb94051146103bd578063b9a2de3a146103dd578063f2fde38b146103fd57600080fd5b8063150b7a02146100a1578063571a26a0146100eb578063715018a6146101af57806378bd7935146101c65780638da5cb5b14610313575b600080fd5b3480156100ad57600080fd5b506100cd6100bc366004610c44565b630a85bd0160e11b95945050505050565b6040516001600160e01b031990911681526020015b60405180910390f35b3480156100f757600080fd5b5061015c610106366004610cdf565b6002602081905260009182526040909120805460018201549282015460038301546004840154600585015460068601546007909601546001600160a01b0395861697969486169593949390921692909160ff1688565b604080516001600160a01b03998a16815260208101989098529588169587019590955260608601939093529416608084015260a083019390935260c082019290925290151560e0820152610100016100e2565b3480156101bb57600080fd5b506101c461041d565b005b3480156101d257600080fd5b506102a26101e1366004610cdf565b6040805161010081018252600080825260208201819052918101829052606081018290526080810182905260a0810182905260c0810182905260e08101919091525060009081526002602081815260409283902083516101008101855281546001600160a01b03908116825260018301549382019390935292810154821693830193909352600383015460608301526004830154166080820152600582015460a0820152600682015460c082015260079091015460ff16151560e082015290565b6040516100e2919060006101008201905060018060a01b0380845116835260208401516020840152806040850151166040840152606084015160608401528060808501511660808401525060a083015160a083015260c083015160c083015260e0830151151560e083015292915050565b34801561031f57600080fd5b506000546040516001600160a01b0390911681526020016100e2565b6101c4610349366004610cdf565b610431565b34801561035a57600080fd5b50610389610369366004610cf8565b600360209081526000928352604080842090915290825290205460ff1681565b60405190151581526020016100e2565b3480156103a557600080fd5b506103af60015481565b6040519081526020016100e2565b3480156103c957600080fd5b506101c46103d8366004610d22565b610621565b3480156103e957600080fd5b506101c46103f8366004610cdf565b610861565b34801561040957600080fd5b506101c4610418366004610d55565b610b6d565b610425610bab565b61042f6000610bd8565b565b6000818152600260205260409020600781015460ff16156104915760405162461bcd60e51b8152602060048201526015602482015274105d58dd1a5bdb88185b1c9958591e48195b991959605a1b60448201526064015b60405180910390fd5b806005015442106104d65760405162461bcd60e51b815260206004820152600f60248201526e105d58dd1a5bdb88195e1c1a5c9959608a1b6044820152606401610488565b60048101546001600160a01b0316330361052b5760405162461bcd60e51b815260206004820152601660248201527520b63932b0b23c903434b3b432b9ba103134b23232b960511b6044820152606401610488565b8060030154341161056c5760405162461bcd60e51b815260206004820152600b60248201526a42696420746f6f206c6f7760a81b6044820152606401610488565b60048101546001600160a01b0316156105c157600481015460038201546040516001600160a01b039092169181156108fc0291906000818181858888f193505050501580156105bf573d6000803e3d6000fd5b505b34600382018190556004820180546001600160a01b031916339081179091554260068401556040519182529083907ff13cb67d4c8841d2c893b242b7d61382d8e3bb53c5c58a8584106e74e8c4721b906020015b60405180910390a35050565b6001600160a01b038316600090815260036020908152604080832085845290915290205460ff16156106955760405162461bcd60e51b815260206004820152601860248201527f546f6b656e20616c7265616479206f6e2061756374696f6e00000000000000006044820152606401610488565b6040516323b872dd60e01b8152336004820152306024820152604481018390526001600160a01b038416906323b872dd90606401600060405180830381600087803b1580156106e357600080fd5b505af11580156106f7573d6000803e3d6000fd5b50505050600081603c61070a9190610d8d565b6107149042610daa565b60408051610100810182526001600160a01b038088168083526020808401898152338587019081526000606087018181526080880182815260a089018b81524260c08b0190815260e08b018581526001805487526002808b528e88209d518e54908e166001600160a01b0319918216178f5599518e8301559751978d018054988d16988a169890981790975593516003808d0191909155925160048c01805491909b16971696909617909855965160058901559251600688015591516007909601805496151560ff199788161790558382529382528581208a825290915284902080549093168217909255549151929350917fc9050d42180a61cb0d9ebb8ad118b62fe6eab12cf12ff752c4a0cc7da9ddf6279061083e9087908690918252602082015260400190565b60405180910390a36001805490600061085683610dbd565b919050555050505050565b6000818152600260205260409020600781015460ff16156108bc5760405162461bcd60e51b8152602060048201526015602482015274105d58dd1a5bdb88185b1c9958591e48195b991959605a1b6044820152606401610488565b8060050154421015806108df575060068101546108dc9062015180610daa565b42115b6109225760405162461bcd60e51b815260206004820152601460248201527341756374696f6e207374696c6c2061637469766560601b6044820152606401610488565b600781018054600160ff19918216811790925582546001600160a01b039081166000908152600360209081526040808320958701548352949052929092208054909116905560048201541615610a6e5780546004808301546001840154604051632142170760e11b815230938101939093526001600160a01b0391821660248401526044830152909116906342842e0e90606401600060405180830381600087803b1580156109d057600080fd5b505af11580156109e4573d6000803e3d6000fd5b505050600282015460038301546040516001600160a01b03909216925080156108fc02916000818181858888f19350505050158015610a27573d6000803e3d6000fd5b50600181015460048201546040516001600160a01b039091169030907f209eb5082bc3bcbd509ae679a680b3bb2a11b77fea542a93e205020af76529fc90600090a4610b25565b805460028201546001830154604051632142170760e11b81523060048201526001600160a01b03928316602482015260448101919091529116906342842e0e90606401600060405180830381600087803b158015610acb57600080fd5b505af1158015610adf573d6000803e3d6000fd5b505050600182015460028301546040519192506001600160a01b03169030907f209eb5082bc3bcbd509ae679a680b3bb2a11b77fea542a93e205020af76529fc90600090a45b600481015460038201546040519081526001600160a01b039091169083907fd2aa34a4fdbbc6dff6a3e56f46e0f3ae2a31d7785ff3487aa5c95c642acea50190602001610615565b610b75610bab565b6001600160a01b038116610b9f57604051631e4fbdf760e01b815260006004820152602401610488565b610ba881610bd8565b50565b6000546001600160a01b0316331461042f5760405163118cdaa760e01b8152336004820152602401610488565b600080546001600160a01b038381166001600160a01b0319831681178455604051919092169283917f8be0079c531659141344cd1fd0a4f28419497f9722a3daafe3b4186f6b6457e09190a35050565b80356001600160a01b0381168114610c3f57600080fd5b919050565b600080600080600060808688031215610c5c57600080fd5b610c6586610c28565b9450610c7360208701610c28565b935060408601359250606086013567ffffffffffffffff80821115610c9757600080fd5b818801915088601f830112610cab57600080fd5b813581811115610cba57600080fd5b896020828501011115610ccc57600080fd5b9699959850939650602001949392505050565b600060208284031215610cf157600080fd5b5035919050565b60008060408385031215610d0b57600080fd5b610d1483610c28565b946020939093013593505050565b600080600060608486031215610d3757600080fd5b610d4084610c28565b95602085013595506040909401359392505050565b600060208284031215610d6757600080fd5b610d7082610c28565b9392505050565b634e487b7160e01b600052601160045260246000fd5b8082028115828204841417610da457610da4610d77565b92915050565b80820180821115610da457610da4610d77565b600060018201610dcf57610dcf610d77565b506001019056fea2646970667358221220281f9a1952953e7fc3560eaf83f93bb3146e5b267be0c4cfb4333d0dac306b9164736f6c63430008140033",
  "linkReferences": {},
  "deployedLinkReferences": {}
}